{
  "address": "0x39CcDE7134A60F3E89c9036737302CFB9Ca7Cc7F",
  "abi": [
    {
      "inputs": [
        {
          "internalType": "address",
          "name": "priceFeedAddress",
          "type": "address"
        }
      ],
      "stateMutability": "nonpayable",
      "type": "constructor"
    },
    {
      "inputs": [],
      "name": "FundMe__NotOwner",
      "type": "error"
    },
    {
      "stateMutability": "payable",
      "type": "fallback"
    },
    {
      "inputs": [],
      "name": "MINIMUM_USD",
      "outputs": [
        {
          "internalType": "uint256",
          "name": "",
          "type": "uint256"
        }
      ],
      "stateMutability": "view",
      "type": "function"
    },
    {
      "inputs": [],
      "name": "fund",
      "outputs": [],
      "stateMutability": "payable",
      "type": "function"
    },
    {
      "inputs": [
        {
          "internalType": "uint256",
          "name": "index",
          "type": "uint256"
        }
      ],
      "name": "getFunder",
      "outputs": [
        {
          "internalType": "address",
          "name": "",
          "type": "address"
        }
      ],
      "stateMutability": "view",
      "type": "function"
    },
    {
      "inputs": [],
      "name": "getOwner",
      "outputs": [
        {
          "internalType": "address",
          "name": "",
          "type": "address"
        }
      ],
      "stateMutability": "view",
      "type": "function"
    },
    {
      "inputs": [],
      "name": "getPriceFeed",
      "outputs": [
        {
          "internalType": "contract AggregatorV3Interface",
          "name": "",
          "type": "address"
        }
      ],
      "stateMutability": "view",
      "type": "function"
    },
    {
      "inputs": [
        {
          "internalType": "address",
          "name": "funder",
          "type": "address"
        }
      ],
      "name": "getaddressToAmountFunded",
      "outputs": [
        {
          "internalType": "uint256",
          "name": "",
          "type": "uint256"
        }
      ],
      "stateMutability": "view",
      "type": "function"
    },
    {
      "inputs": [],
      "name": "optimizedwithdraw",
      "outputs": [],
      "stateMutability": "nonpayable",
      "type": "function"
    },
    {
      "inputs": [],
      "name": "unoptimizedwithdraw",
      "outputs": [],
      "stateMutability": "nonpayable",
      "type": "function"
    },
    {
      "stateMutability": "payable",
      "type": "receive"
    }
  ],
  "transactionHash": "0xf18046e77a53e5d87add06e3fe1858adc8f2c250e27e4b35c7b513606797ff7d",
  "args": [
    "0xD4a33860578De61DBAbDc8BFdb98FD742fA7028e"
  ],
  "numDeployments": 2,
  "solcInputHash": "47a87f59e20e1b3be92ca117145737b6",
  "bytecode": "0x60806040523480156200001157600080fd5b50604051620012f8380380620012f883398181016040528101906200003791906200012a565b33600260006101000a81548173ffffffffffffffffffffffffffffffffffffffff021916908373ffffffffffffffffffffffffffffffffffffffff16021790555080600360006101000a81548173ffffffffffffffffffffffffffffffffffffffff021916908373ffffffffffffffffffffffffffffffffffffffff160217905550506200015c565b600080fd5b600073ffffffffffffffffffffffffffffffffffffffff82169050919050565b6000620000f282620000c5565b9050919050565b6200010481620000e5565b81146200011057600080fd5b50565b6000815190506200012481620000f9565b92915050565b600060208284031215620001435762000142620000c0565b5b6000620001538482850162000113565b91505092915050565b61118c806200016c6000396000f3fe60806040526004361061007f5760003560e01c80639e87a5cd1161004e5780639e87a5cd14610142578063b60d42881461016d578063d7b4750c14610177578063e209b4b2146101b45761008e565b80636b69a592146100985780636d8cb2b4146100c3578063832b1d2c146100da578063893d20e8146101175761008e565b3661008e5761008c6101cb565b005b6100966101cb565b005b3480156100a457600080fd5b506100ad610305565b6040516100ba9190610a7a565b60405180910390f35b3480156100cf57600080fd5b506100d8610312565b005b3480156100e657600080fd5b5061010160048036038101906100fc9190610af8565b6105b8565b60405161010e9190610a7a565b60405180910390f35b34801561012357600080fd5b5061012c610600565b6040516101399190610b34565b60405180910390f35b34801561014e57600080fd5b5061015761062a565b6040516101649190610bae565b60405180910390f35b6101756101cb565b005b34801561018357600080fd5b5061019e60048036038101906101999190610bf5565b610654565b6040516101ab9190610b34565b60405180910390f35b3480156101c057600080fd5b506101c961069c565b005b681b1ae4d6e2ef50000061020a600360009054906101000a900473ffffffffffffffffffffffffffffffffffffffff16346108de90919063ffffffff16565b101561024b576040517f08c379a000000000000000000000000000000000000000000000000000000000815260040161024290610c7f565b60405180910390fd5b346000803373ffffffffffffffffffffffffffffffffffffffff1673ffffffffffffffffffffffffffffffffffffffff16815260200190815260200160002060008282546102999190610cce565b925050819055506001339080600181540180825580915050600190039060005260206000200160009091909190916101000a81548173ffffffffffffffffffffffffffffffffffffffff021916908373ffffffffffffffffffffffffffffffffffffffff160217905550565b681b1ae4d6e2ef50000081565b600260009054906101000a900473ffffffffffffffffffffffffffffffffffffffff1673ffffffffffffffffffffffffffffffffffffffff163373ffffffffffffffffffffffffffffffffffffffff1614610399576040517f579610db00000000000000000000000000000000000000000000000000000000815260040160405180910390fd5b6000600180548060200260200160405190810160405280929190818152602001828054801561041d57602002820191906000526020600020905b8160009054906101000a900473ffffffffffffffffffffffffffffffffffffffff1673ffffffffffffffffffffffffffffffffffffffff16815260200190600101908083116103d3575b5050505050905060005b81518110156104a757600082828151811061044557610444610d24565b5b6020026020010151905060008060008373ffffffffffffffffffffffffffffffffffffffff1673ffffffffffffffffffffffffffffffffffffffff1681526020019081526020016000208190555050808061049f90610d53565b915050610427565b50600067ffffffffffffffff8111156104c3576104c2610d9c565b5b6040519080825280602002602001820160405280156104f15781602001602082028036833780820191505090505b50600190805190602001906105079291906109ba565b5060003373ffffffffffffffffffffffffffffffffffffffff164760405161052e90610dfc565b60006040518083038185875af1925050503d806000811461056b576040519150601f19603f3d011682016040523d82523d6000602084013e610570565b606091505b50509050806105b4576040517f08c379a00000000000000000000000000000000000000000000000000000000081526004016105ab90610e5d565b60405180910390fd5b5050565b60008060008373ffffffffffffffffffffffffffffffffffffffff1673ffffffffffffffffffffffffffffffffffffffff168152602001908152602001600020549050919050565b6000600260009054906101000a900473ffffffffffffffffffffffffffffffffffffffff16905090565b6000600360009054906101000a900473ffffffffffffffffffffffffffffffffffffffff16905090565b60006001828154811061066a57610669610d24565b5b9060005260206000200160009054906101000a900473ffffffffffffffffffffffffffffffffffffffff169050919050565b600260009054906101000a900473ffffffffffffffffffffffffffffffffffffffff1673ffffffffffffffffffffffffffffffffffffffff163373ffffffffffffffffffffffffffffffffffffffff1614610723576040517f579610db00000000000000000000000000000000000000000000000000000000815260040160405180910390fd5b60005b6001805490508110156107ce5760006001828154811061074957610748610d24565b5b9060005260206000200160009054906101000a900473ffffffffffffffffffffffffffffffffffffffff16905060008060008373ffffffffffffffffffffffffffffffffffffffff1673ffffffffffffffffffffffffffffffffffffffff168152602001908152602001600020819055505080806107c690610d53565b915050610726565b50600067ffffffffffffffff8111156107ea576107e9610d9c565b5b6040519080825280602002602001820160405280156108185781602001602082028036833780820191505090505b506001908051906020019061082e9291906109ba565b5060003373ffffffffffffffffffffffffffffffffffffffff164760405161085590610dfc565b60006040518083038185875af1925050503d8060008114610892576040519150601f19603f3d011682016040523d82523d6000602084013e610897565b606091505b50509050806108db576040517f08c379a00000000000000000000000000000000000000000000000000000000081526004016108d290610e5d565b60405180910390fd5b50565b6000806108ea8361091a565b90506000670de0b6b3a764000085836109039190610e7d565b61090d9190610f06565b9050809250505092915050565b6000808273ffffffffffffffffffffffffffffffffffffffff1663feaf968c6040518163ffffffff1660e01b815260040160a06040518083038186803b15801561096357600080fd5b505afa158015610977573d6000803e3d6000fd5b505050506040513d601f19601f8201168201806040525081019061099b9190610fc4565b5050509150506402540be400816109b2919061103f565b915050919050565b828054828255906000526020600020908101928215610a33579160200282015b82811115610a325782518260006101000a81548173ffffffffffffffffffffffffffffffffffffffff021916908373ffffffffffffffffffffffffffffffffffffffff160217905550916020019190600101906109da565b5b509050610a409190610a44565b5090565b5b80821115610a5d576000816000905550600101610a45565b5090565b6000819050919050565b610a7481610a61565b82525050565b6000602082019050610a8f6000830184610a6b565b92915050565b600080fd5b600073ffffffffffffffffffffffffffffffffffffffff82169050919050565b6000610ac582610a9a565b9050919050565b610ad581610aba565b8114610ae057600080fd5b50565b600081359050610af281610acc565b92915050565b600060208284031215610b0e57610b0d610a95565b5b6000610b1c84828501610ae3565b91505092915050565b610b2e81610aba565b82525050565b6000602082019050610b496000830184610b25565b92915050565b6000819050919050565b6000610b74610b6f610b6a84610a9a565b610b4f565b610a9a565b9050919050565b6000610b8682610b59565b9050919050565b6000610b9882610b7b565b9050919050565b610ba881610b8d565b82525050565b6000602082019050610bc36000830184610b9f565b92915050565b610bd281610a61565b8114610bdd57600080fd5b50565b600081359050610bef81610bc9565b92915050565b600060208284031215610c0b57610c0a610a95565b5b6000610c1984828501610be0565b91505092915050565b600082825260208201905092915050565b7f596f75206e65656420746f207370656e64206d6f726520455448210000000000600082015250565b6000610c69601b83610c22565b9150610c7482610c33565b602082019050919050565b60006020820190508181036000830152610c9881610c5c565b9050919050565b7f4e487b7100000000000000000000000000000000000000000000000000000000600052601160045260246000fd5b6000610cd982610a61565b9150610ce483610a61565b9250827fffffffffffffffffffffffffffffffffffffffffffffffffffffffffffffffff03821115610d1957610d18610c9f565b5b828201905092915050565b7f4e487b7100000000000000000000000000000000000000000000000000000000600052603260045260246000fd5b6000610d5e82610a61565b91507fffffffffffffffffffffffffffffffffffffffffffffffffffffffffffffffff821415610d9157610d90610c9f565b5b600182019050919050565b7f4e487b7100000000000000000000000000000000000000000000000000000000600052604160045260246000fd5b600081905092915050565b50565b6000610de6600083610dcb565b9150610df182610dd6565b600082019050919050565b6000610e0782610dd9565b9150819050919050565b7f43616c6c206661696c6564000000000000000000000000000000000000000000600082015250565b6000610e47600b83610c22565b9150610e5282610e11565b602082019050919050565b60006020820190508181036000830152610e7681610e3a565b9050919050565b6000610e8882610a61565b9150610e9383610a61565b9250817fffffffffffffffffffffffffffffffffffffffffffffffffffffffffffffffff0483118215151615610ecc57610ecb610c9f565b5b828202905092915050565b7f4e487b7100000000000000000000000000000000000000000000000000000000600052601260045260246000fd5b6000610f1182610a61565b9150610f1c83610a61565b925082610f2c57610f2b610ed7565b5b828204905092915050565b600069ffffffffffffffffffff82169050919050565b610f5681610f37565b8114610f6157600080fd5b50565b600081519050610f7381610f4d565b92915050565b6000819050919050565b610f8c81610f79565b8114610f9757600080fd5b50565b600081519050610fa981610f83565b92915050565b600081519050610fbe81610bc9565b92915050565b600080600080600060a08688031215610fe057610fdf610a95565b5b6000610fee88828901610f64565b9550506020610fff88828901610f9a565b945050604061101088828901610faf565b935050606061102188828901610faf565b925050608061103288828901610f64565b9150509295509295909350565b600061104a82610f79565b915061105583610f79565b9250827f7fffffffffffffffffffffffffffffffffffffffffffffffffffffffffffffff048211600084136000841316161561109457611093610c9f565b5b817f800000000000000000000000000000000000000000000000000000000000000005831260008412600084131616156110d1576110d0610c9f565b5b827f8000000000000000000000000000000000000000000000000000000000000000058212600084136000841216161561110e5761110d610c9f565b5b827f7fffffffffffffffffffffffffffffffffffffffffffffffffffffffffffffff058212600084126000841216161561114b5761114a610c9f565b5b82820290509291505056fea2646970667358221220f56695ea3697b4ae6ca553b32eceae0aae7d8c6ef22aefb26962b1a41c2dfd9664736f6c63430008080033",
  "devdoc": {
    "kind": "dev",
    "methods": {},
    "version": 1
  },
  "userdoc": {
    "kind": "user",
    "methods": {},
    "version": 1
  },
  "storageLayout": {
    "storage": [
      {
        "astId": 58,
        "contract": "contracts/FundMe.sol:FundMe",
        "label": "s_addressToAmountFunded",
        "offset": 0,
        "slot": "0",
        "type": "t_mapping(t_address,t_uint256)"
      },
      {
        "astId": 61,
        "contract": "contracts/FundMe.sol:FundMe",
        "label": "s_funders",
        "offset": 0,
        "slot": "1",
        "type": "t_array(t_address)dyn_storage"
      },
      {
        "astId": 63,
        "contract": "contracts/FundMe.sol:FundMe",
        "label": "i_owner",
        "offset": 0,
        "slot": "2",
        "type": "t_address"
      },
      {
        "astId": 66,
        "contract": "contracts/FundMe.sol:FundMe",
        "label": "s_priceFeed",
        "offset": 0,
        "slot": "3",
        "type": "t_contract(AggregatorV3Interface)45"
      }
    ],
    "types": {
      "t_address": {
        "encoding": "inplace",
        "label": "address",
        "numberOfBytes": "20"
      },
      "t_array(t_address)dyn_storage": {
        "base": "t_address",
        "encoding": "dynamic_array",
        "label": "address[]",
        "numberOfBytes": "32"
      },
      "t_contract(AggregatorV3Interface)45": {
        "encoding": "inplace",
        "label": "contract AggregatorV3Interface",
        "numberOfBytes": "20"
      },
      "t_mapping(t_address,t_uint256)": {
        "encoding": "mapping",
        "key": "t_address",
        "label": "mapping(address => uint256)",
        "numberOfBytes": "32",
        "value": "t_uint256"
      },
      "t_uint256": {
        "encoding": "inplace",
        "label": "uint256",
        "numberOfBytes": "32"
      }
    }
  }
}